{
  "_format": "hh-sol-artifact-1",
  "contractName": "ERC721CoA",
  "sourceName": "contracts/ERC721CoA.sol",
  "abi": [
    {
      "inputs": [],
      "stateMutability": "nonpayable",
      "type": "constructor"
    },
    {
      "anonymous": false,
      "inputs": [
        {
          "indexed": true,
          "internalType": "address",
          "name": "owner",
          "type": "address"
        },
        {
          "indexed": true,
          "internalType": "address",
          "name": "approved",
          "type": "address"
        },
        {
          "indexed": true,
          "internalType": "uint256",
          "name": "tokenId",
          "type": "uint256"
        }
      ],
      "name": "Approval",
      "type": "event"
    },
    {
      "anonymous": false,
      "inputs": [
        {
          "indexed": true,
          "internalType": "address",
          "name": "owner",
          "type": "address"
        },
        {
          "indexed": true,
          "internalType": "address",
          "name": "operator",
          "type": "address"
        },
        {
          "indexed": false,
          "internalType": "bool",
          "name": "approved",
          "type": "bool"
        }
      ],
      "name": "ApprovalForAll",
      "type": "event"
    },
    {
      "anonymous": false,
      "inputs": [
        {
          "indexed": false,
          "internalType": "uint256",
          "name": "_fromTokenId",
          "type": "uint256"
        },
        {
          "indexed": false,
          "internalType": "uint256",
          "name": "_toTokenId",
          "type": "uint256"
        }
      ],
      "name": "BatchMetadataUpdate",
      "type": "event"
    },
    {
      "anonymous": false,
      "inputs": [
        {
          "indexed": false,
          "internalType": "uint256",
          "name": "_tokenId",
          "type": "uint256"
        }
      ],
      "name": "MetadataUpdate",
      "type": "event"
    },
    {
      "anonymous": false,
      "inputs": [
        {
          "indexed": true,
          "internalType": "uint256",
          "name": "tokenId",
          "type": "uint256"
        },
        {
          "indexed": true,
          "internalType": "string",
          "name": "artist",
          "type": "string"
        },
        {
          "indexed": true,
          "internalType": "string",
          "name": "objectName",
          "type": "string"
        }
      ],
      "name": "Minted",
      "type": "event"
    },
    {
      "anonymous": false,
      "inputs": [
        {
          "indexed": true,
          "internalType": "bytes32",
          "name": "role",
          "type": "bytes32"
        },
        {
          "indexed": true,
          "internalType": "bytes32",
          "name": "previousAdminRole",
          "type": "bytes32"
        },
        {
          "indexed": true,
          "internalType": "bytes32",
          "name": "newAdminRole",
          "type": "bytes32"
        }
      ],
      "name": "RoleAdminChanged",
      "type": "event"
    },
    {
      "anonymous": false,
      "inputs": [
        {
          "indexed": true,
          "internalType": "bytes32",
          "name": "role",
          "type": "bytes32"
        },
        {
          "indexed": true,
          "internalType": "address",
          "name": "account",
          "type": "address"
        },
        {
          "indexed": true,
          "internalType": "address",
          "name": "sender",
          "type": "address"
        }
      ],
      "name": "RoleGranted",
      "type": "event"
    },
    {
      "anonymous": false,
      "inputs": [
        {
          "indexed": true,
          "internalType": "bytes32",
          "name": "role",
          "type": "bytes32"
        },
        {
          "indexed": true,
          "internalType": "address",
          "name": "account",
          "type": "address"
        },
        {
          "indexed": true,
          "internalType": "address",
          "name": "sender",
          "type": "address"
        }
      ],
      "name": "RoleRevoked",
      "type": "event"
    },
    {
      "anonymous": false,
      "inputs": [
        {
          "indexed": true,
          "internalType": "address",
          "name": "from",
          "type": "address"
        },
        {
          "indexed": true,
          "internalType": "address",
          "name": "to",
          "type": "address"
        },
        {
          "indexed": true,
          "internalType": "uint256",
          "name": "tokenId",
          "type": "uint256"
        }
      ],
      "name": "Transfer",
      "type": "event"
    },
    {
      "inputs": [],
      "name": "AUTHENTICATOR_ROLE",
      "outputs": [
        {
          "internalType": "bytes32",
          "name": "",
          "type": "bytes32"
        }
      ],
      "stateMutability": "view",
      "type": "function"
    },
    {
      "inputs": [],
      "name": "DEFAULT_ADMIN_ROLE",
      "outputs": [
        {
          "internalType": "bytes32",
          "name": "",
          "type": "bytes32"
        }
      ],
      "stateMutability": "view",
      "type": "function"
    },
    {
      "inputs": [],
      "name": "MINTER_ROLE",
      "outputs": [
        {
          "internalType": "bytes32",
          "name": "",
          "type": "bytes32"
        }
      ],
      "stateMutability": "view",
      "type": "function"
    },
    {
      "inputs": [
        {
          "internalType": "address",
          "name": "to",
          "type": "address"
        },
        {
          "internalType": "uint256",
          "name": "tokenId",
          "type": "uint256"
        }
      ],
      "name": "approve",
      "outputs": [],
      "stateMutability": "nonpayable",
      "type": "function"
    },
    {
      "inputs": [
        {
          "internalType": "uint256",
          "name": "tokenId",
          "type": "uint256"
        }
      ],
      "name": "authnticateToken",
      "outputs": [
        {
          "internalType": "string",
          "name": "",
          "type": "string"
        }
      ],
      "stateMutability": "view",
      "type": "function"
    },
    {
      "inputs": [
        {
          "internalType": "address",
          "name": "owner",
          "type": "address"
        }
      ],
      "name": "balanceOf",
      "outputs": [
        {
          "internalType": "uint256",
          "name": "",
          "type": "uint256"
        }
      ],
      "stateMutability": "view",
      "type": "function"
    },
    {
      "inputs": [
        {
          "internalType": "uint256",
          "name": "tokenId",
          "type": "uint256"
        }
      ],
      "name": "getApproved",
      "outputs": [
        {
          "internalType": "address",
          "name": "",
          "type": "address"
        }
      ],
      "stateMutability": "view",
      "type": "function"
    },
    {
      "inputs": [
        {
          "internalType": "bytes32",
          "name": "role",
          "type": "bytes32"
        }
      ],
      "name": "getRoleAdmin",
      "outputs": [
        {
          "internalType": "bytes32",
          "name": "",
          "type": "bytes32"
        }
      ],
      "stateMutability": "view",
      "type": "function"
    },
    {
      "inputs": [
        {
          "internalType": "bytes32",
          "name": "role",
          "type": "bytes32"
        },
        {
          "internalType": "address",
          "name": "account",
          "type": "address"
        }
      ],
      "name": "grantRole",
      "outputs": [],
      "stateMutability": "nonpayable",
      "type": "function"
    },
    {
      "inputs": [
        {
          "internalType": "bytes32",
          "name": "role",
          "type": "bytes32"
        },
        {
          "internalType": "address",
          "name": "account",
          "type": "address"
        }
      ],
      "name": "hasRole",
      "outputs": [
        {
          "internalType": "bool",
          "name": "",
          "type": "bool"
        }
      ],
      "stateMutability": "view",
      "type": "function"
    },
    {
      "inputs": [
        {
          "internalType": "address",
          "name": "owner",
          "type": "address"
        },
        {
          "internalType": "address",
          "name": "operator",
          "type": "address"
        }
      ],
      "name": "isApprovedForAll",
      "outputs": [
        {
          "internalType": "bool",
          "name": "",
          "type": "bool"
        }
      ],
      "stateMutability": "view",
      "type": "function"
    },
    {
      "inputs": [],
      "name": "mintedTokens",
      "outputs": [
        {
          "internalType": "uint256",
          "name": "currentTokenId",
          "type": "uint256"
        }
      ],
      "stateMutability": "view",
      "type": "function"
    },
    {
      "inputs": [],
      "name": "name",
      "outputs": [
        {
          "internalType": "string",
          "name": "",
          "type": "string"
        }
      ],
      "stateMutability": "view",
      "type": "function"
    },
    {
      "inputs": [
        {
          "internalType": "uint256",
          "name": "tokenId",
          "type": "uint256"
        }
      ],
      "name": "ownerOf",
      "outputs": [
        {
          "internalType": "address",
          "name": "",
          "type": "address"
        }
      ],
      "stateMutability": "view",
      "type": "function"
    },
    {
      "inputs": [
        {
          "internalType": "bytes32",
          "name": "role",
          "type": "bytes32"
        },
        {
          "internalType": "address",
          "name": "account",
          "type": "address"
        }
      ],
      "name": "renounceRole",
      "outputs": [],
      "stateMutability": "nonpayable",
      "type": "function"
    },
    {
      "inputs": [
        {
          "internalType": "bytes32",
          "name": "role",
          "type": "bytes32"
        },
        {
          "internalType": "address",
          "name": "account",
          "type": "address"
        }
      ],
      "name": "revokeRole",
      "outputs": [],
      "stateMutability": "nonpayable",
      "type": "function"
    },
    {
      "inputs": [
        {
          "internalType": "address",
          "name": "to",
          "type": "address"
        },
        {
          "internalType": "string",
          "name": "uri",
          "type": "string"
        },
        {
          "internalType": "string",
          "name": "authuri",
          "type": "string"
        },
        {
          "internalType": "string",
          "name": "artistName",
          "type": "string"
        },
        {
          "internalType": "string",
          "name": "objectName",
          "type": "string"
        }
      ],
      "name": "safeMintTo",
      "outputs": [],
      "stateMutability": "nonpayable",
      "type": "function"
    },
    {
      "inputs": [
        {
          "internalType": "address",
          "name": "from",
          "type": "address"
        },
        {
          "internalType": "address",
          "name": "to",
          "type": "address"
        },
        {
          "internalType": "uint256",
          "name": "tokenId",
          "type": "uint256"
        }
      ],
      "name": "safeTransferFrom",
      "outputs": [],
      "stateMutability": "nonpayable",
      "type": "function"
    },
    {
      "inputs": [
        {
          "internalType": "address",
          "name": "from",
          "type": "address"
        },
        {
          "internalType": "address",
          "name": "to",
          "type": "address"
        },
        {
          "internalType": "uint256",
          "name": "tokenId",
          "type": "uint256"
        },
        {
          "internalType": "bytes",
          "name": "data",
          "type": "bytes"
        }
      ],
      "name": "safeTransferFrom",
      "outputs": [],
      "stateMutability": "nonpayable",
      "type": "function"
    },
    {
      "inputs": [
        {
          "internalType": "address",
          "name": "operator",
          "type": "address"
        },
        {
          "internalType": "bool",
          "name": "approved",
          "type": "bool"
        }
      ],
      "name": "setApprovalForAll",
      "outputs": [],
      "stateMutability": "nonpayable",
      "type": "function"
    },
    {
      "inputs": [
        {
          "internalType": "bytes4",
          "name": "interfaceId",
          "type": "bytes4"
        }
      ],
      "name": "supportsInterface",
      "outputs": [
        {
          "internalType": "bool",
          "name": "",
          "type": "bool"
        }
      ],
      "stateMutability": "view",
      "type": "function"
    },
    {
      "inputs": [],
      "name": "symbol",
      "outputs": [
        {
          "internalType": "string",
          "name": "",
          "type": "string"
        }
      ],
      "stateMutability": "view",
      "type": "function"
    },
    {
      "inputs": [
        {
          "internalType": "uint256",
          "name": "tokenId",
          "type": "uint256"
        }
      ],
      "name": "tokenURI",
      "outputs": [
        {
          "internalType": "string",
          "name": "",
          "type": "string"
        }
      ],
      "stateMutability": "view",
      "type": "function"
    },
    {
      "inputs": [
        {
          "internalType": "address",
          "name": "from",
          "type": "address"
        },
        {
          "internalType": "address",
          "name": "to",
          "type": "address"
        },
        {
          "internalType": "uint256",
          "name": "tokenId",
          "type": "uint256"
        }
      ],
      "name": "transferFrom",
      "outputs": [],
      "stateMutability": "nonpayable",
      "type": "function"
    }
  ],
  "bytecode": "0x60806040523480156200001157600080fd5b506040518060400160405280600981526020017f455243373231436f4100000000000000000000000000000000000000000000008152506040518060400160405280600381526020017f434f41000000000000000000000000000000000000000000000000000000000081525081600090816200008f919062000502565b508060019081620000a1919062000502565b505050620000b96000801b336200012360201b60201c565b620000eb7f9f2df0fed2c77648de5860a4cc508cd0818c85b8b8a1ab4ceeef8d981c8956a6336200012360201b60201c565b6200011d7f190acb99f29d9641c9ad47655049f2d7c78fcbc837d62e7981d28c871f722081336200012360201b60201c565b620005e9565b6200013582826200021560201b60201c565b620002115760016007600084815260200190815260200160002060000160008373ffffffffffffffffffffffffffffffffffffffff1673ffffffffffffffffffffffffffffffffffffffff16815260200190815260200160002060006101000a81548160ff021916908315150217905550620001b66200028060201b60201c565b73ffffffffffffffffffffffffffffffffffffffff168173ffffffffffffffffffffffffffffffffffffffff16837f2f8788117e7eff1d82e926ec794901d17c78024a50270940304540a733656f0d60405160405180910390a45b5050565b60006007600084815260200190815260200160002060000160008373ffffffffffffffffffffffffffffffffffffffff1673ffffffffffffffffffffffffffffffffffffffff16815260200190815260200160002060009054906101000a900460ff16905092915050565b600033905090565b600081519050919050565b7f4e487b7100000000000000000000000000000000000000000000000000000000600052604160045260246000fd5b7f4e487b7100000000000000000000000000000000000000000000000000000000600052602260045260246000fd5b600060028204905060018216806200030a57607f821691505b60208210810362000320576200031f620002c2565b5b50919050565b60008190508160005260206000209050919050565b60006020601f8301049050919050565b600082821b905092915050565b6000600883026200038a7fffffffffffffffffffffffffffffffffffffffffffffffffffffffffffffffff826200034b565b6200039686836200034b565b95508019841693508086168417925050509392505050565b6000819050919050565b6000819050919050565b6000620003e3620003dd620003d784620003ae565b620003b8565b620003ae565b9050919050565b6000819050919050565b620003ff83620003c2565b620004176200040e82620003ea565b84845462000358565b825550505050565b600090565b6200042e6200041f565b6200043b818484620003f4565b505050565b5b8181101562000463576200045760008262000424565b60018101905062000441565b5050565b601f821115620004b2576200047c8162000326565b62000487846200033b565b8101602085101562000497578190505b620004af620004a6856200033b565b83018262000440565b50505b505050565b600082821c905092915050565b6000620004d760001984600802620004b7565b1980831691505092915050565b6000620004f28383620004c4565b9150826002028217905092915050565b6200050d8262000288565b67ffffffffffffffff81111562000529576200052862000293565b5b620005358254620002f1565b6200054282828562000467565b600060209050601f8311600181146200057a576000841562000565578287015190505b620005718582620004e4565b865550620005e1565b601f1984166200058a8662000326565b60005b82811015620005b4578489015182556001820191506020850194506020810190506200058d565b86831015620005d45784890151620005d0601f891682620004c4565b8355505b6001600288020188555050505b505050505050565b613d0080620005f96000396000f3fe608060405234801561001057600080fd5b50600436106101585760003560e01c80638d75fe05116100c3578063b88d4fde1161007c578063b88d4fde146103d7578063bc569489146103f3578063c87b56dd14610423578063d539139314610453578063d547741f14610471578063e985e9c51461048d57610158565b80638d75fe051461031357806391d148541461033157806395d89b4114610361578063a217fddf1461037f578063a22cb4651461039d578063b65c5e8d146103b957610158565b80632f2ff15d116101155780632f2ff15d1461024357806336568abe1461025f57806342842e0e1461027b5780634d36067e146102975780636352211e146102b357806370a08231146102e357610158565b806301ffc9a71461015d57806306fdde031461018d578063081812fc146101ab578063095ea7b3146101db57806323b872dd146101f7578063248a9ca314610213575b600080fd5b610177600480360381019061017291906125a2565b6104bd565b60405161018491906125ea565b60405180910390f35b6101956104cf565b6040516101a29190612695565b60405180910390f35b6101c560048036038101906101c091906126ed565b610561565b6040516101d2919061275b565b60405180910390f35b6101f560048036038101906101f091906127a2565b6105a7565b005b610211600480360381019061020c91906127e2565b6106be565b005b61022d6004803603810190610228919061286b565b61071e565b60405161023a91906128a7565b60405180910390f35b61025d600480360381019061025891906128c2565b61073e565b005b610279600480360381019061027491906128c2565b61075f565b005b610295600480360381019061029091906127e2565b6107e2565b005b6102b160048036038101906102ac9190612a97565b610802565b005b6102cd60048036038101906102c891906126ed565b6108ca565b6040516102da919061275b565b60405180910390f35b6102fd60048036038101906102f89190612b8b565b610950565b60405161030a9190612bc7565b60405180910390f35b61031b610a07565b6040516103289190612bc7565b60405180910390f35b61034b600480360381019061034691906128c2565b610a18565b60405161035891906125ea565b60405180910390f35b610369610a83565b6040516103769190612695565b60405180910390f35b610387610b15565b60405161039491906128a7565b60405180910390f35b6103b760048036038101906103b29190612c0e565b610b1c565b005b6103c1610b32565b6040516103ce91906128a7565b60405180910390f35b6103f160048036038101906103ec9190612cef565b610b56565b005b61040d600480360381019061040891906126ed565b610bb8565b60405161041a9190612695565b60405180910390f35b61043d600480360381019061043891906126ed565b610d4c565b60405161044a9190612695565b60405180910390f35b61045b610d5e565b60405161046891906128a7565b60405180910390f35b61048b600480360381019061048691906128c2565b610d82565b005b6104a760048036038101906104a29190612d72565b610da3565b6040516104b491906125ea565b60405180910390f35b60006104c882610e37565b9050919050565b6060600080546104de90612de1565b80601f016020809104026020016040519081016040528092919081815260200182805461050a90612de1565b80156105575780601f1061052c57610100808354040283529160200191610557565b820191906000526020600020905b81548152906001019060200180831161053a57829003601f168201915b5050505050905090565b600061056c82610eb1565b6004600083815260200190815260200160002060009054906101000a900473ffffffffffffffffffffffffffffffffffffffff169050919050565b60006105b2826108ca565b90508073ffffffffffffffffffffffffffffffffffffffff168373ffffffffffffffffffffffffffffffffffffffff1603610622576040517f08c379a000000000000000000000000000000000000000000000000000000000815260040161061990612e84565b60405180910390fd5b8073ffffffffffffffffffffffffffffffffffffffff16610641610efc565b73ffffffffffffffffffffffffffffffffffffffff161480610670575061066f8161066a610efc565b610da3565b5b6106af576040517f08c379a00000000000000000000000000000000000000000000000000000000081526004016106a690612f16565b60405180910390fd5b6106b98383610f04565b505050565b6106cf6106c9610efc565b82610fbd565b61070e576040517f08c379a000000000000000000000000000000000000000000000000000000000815260040161070590612fa8565b60405180910390fd5b610719838383611052565b505050565b600060076000838152602001908152602001600020600101549050919050565b6107478261071e565b6107508161134b565b61075a838361135f565b505050565b610767610efc565b73ffffffffffffffffffffffffffffffffffffffff168173ffffffffffffffffffffffffffffffffffffffff16146107d4576040517f08c379a00000000000000000000000000000000000000000000000000000000081526004016107cb9061303a565b60405180910390fd5b6107de8282611440565b5050565b6107fd83838360405180602001604052806000815250610b56565b505050565b7f9f2df0fed2c77648de5860a4cc508cd0818c85b8b8a1ab4ceeef8d981c8956a661082c8161134b565b60006108386008611522565b90506108446008611530565b61084e8982611546565b6108588189611564565b6108628188611608565b838360405161087292919061308a565b6040518091039020868660405161088a92919061308a565b6040518091039020827fa927ac04d4d3734fe8f2c6d7e10171f210b004d3f2d2a4449bbc6a5f2e5427e360405160405180910390a4505050505050505050565b6000806108d683611675565b9050600073ffffffffffffffffffffffffffffffffffffffff168173ffffffffffffffffffffffffffffffffffffffff1603610947576040517f08c379a000000000000000000000000000000000000000000000000000000000815260040161093e906130ef565b60405180910390fd5b80915050919050565b60008073ffffffffffffffffffffffffffffffffffffffff168273ffffffffffffffffffffffffffffffffffffffff16036109c0576040517f08c379a00000000000000000000000000000000000000000000000000000000081526004016109b790613181565b60405180910390fd5b600360008373ffffffffffffffffffffffffffffffffffffffff1673ffffffffffffffffffffffffffffffffffffffff168152602001908152602001600020549050919050565b6000610a136008611522565b905090565b60006007600084815260200190815260200160002060000160008373ffffffffffffffffffffffffffffffffffffffff1673ffffffffffffffffffffffffffffffffffffffff16815260200190815260200160002060009054906101000a900460ff16905092915050565b606060018054610a9290612de1565b80601f0160208091040260200160405190810160405280929190818152602001828054610abe90612de1565b8015610b0b5780601f10610ae057610100808354040283529160200191610b0b565b820191906000526020600020905b815481529060010190602001808311610aee57829003601f168201915b5050505050905090565b6000801b81565b610b2e610b27610efc565b83836116b2565b5050565b7f190acb99f29d9641c9ad47655049f2d7c78fcbc837d62e7981d28c871f72208181565b610b67610b61610efc565b83610fbd565b610ba6576040517f08c379a0000000000000000000000000000000000000000000000000000000008152600401610b9d90612fa8565b60405180910390fd5b610bb28484848461181e565b50505050565b6060610bc382610eb1565b6000610bce836108ca565b90503373ffffffffffffffffffffffffffffffffffffffff168173ffffffffffffffffffffffffffffffffffffffff161480610c375750610c367f190acb99f29d9641c9ad47655049f2d7c78fcbc837d62e7981d28c871f722081610c31610efc565b610a18565b5b610c47610c42610efc565b61187a565b604051602001610c579190613290565b60405160208183030381529060405290610ca7576040517f08c379a0000000000000000000000000000000000000000000000000000000008152600401610c9e9190612695565b60405180910390fd5b50600960008481526020019081526020016000208054610cc690612de1565b80601f0160208091040260200160405190810160405280929190818152602001828054610cf290612de1565b8015610d3f5780601f10610d1457610100808354040283529160200191610d3f565b820191906000526020600020905b815481529060010190602001808311610d2257829003601f168201915b5050505050915050919050565b6060610d57826118a7565b9050919050565b7f9f2df0fed2c77648de5860a4cc508cd0818c85b8b8a1ab4ceeef8d981c8956a681565b610d8b8261071e565b610d948161134b565b610d9e8383611440565b505050565b6000600560008473ffffffffffffffffffffffffffffffffffffffff1673ffffffffffffffffffffffffffffffffffffffff16815260200190815260200160002060008373ffffffffffffffffffffffffffffffffffffffff1673ffffffffffffffffffffffffffffffffffffffff16815260200190815260200160002060009054906101000a900460ff16905092915050565b60007f7965db0b000000000000000000000000000000000000000000000000000000007bffffffffffffffffffffffffffffffffffffffffffffffffffffffff1916827bffffffffffffffffffffffffffffffffffffffffffffffffffffffff19161480610eaa5750610ea9826119b9565b5b9050919050565b610eba81611a1a565b610ef9576040517f08c379a0000000000000000000000000000000000000000000000000000000008152600401610ef0906130ef565b60405180910390fd5b50565b600033905090565b816004600083815260200190815260200160002060006101000a81548173ffffffffffffffffffffffffffffffffffffffff021916908373ffffffffffffffffffffffffffffffffffffffff160217905550808273ffffffffffffffffffffffffffffffffffffffff16610f77836108ca565b73ffffffffffffffffffffffffffffffffffffffff167f8c5be1e5ebec7d5bd14f71427d1e84f3dd0314c0f7b2291e5b200ac8c7c3b92560405160405180910390a45050565b600080610fc9836108ca565b90508073ffffffffffffffffffffffffffffffffffffffff168473ffffffffffffffffffffffffffffffffffffffff16148061100b575061100a8185610da3565b5b8061104957508373ffffffffffffffffffffffffffffffffffffffff1661103184610561565b73ffffffffffffffffffffffffffffffffffffffff16145b91505092915050565b8273ffffffffffffffffffffffffffffffffffffffff16611072826108ca565b73ffffffffffffffffffffffffffffffffffffffff16146110c8576040517f08c379a00000000000000000000000000000000000000000000000000000000081526004016110bf9061332f565b60405180910390fd5b600073ffffffffffffffffffffffffffffffffffffffff168273ffffffffffffffffffffffffffffffffffffffff1603611137576040517f08c379a000000000000000000000000000000000000000000000000000000000815260040161112e906133c1565b60405180910390fd5b6111448383836001611a5b565b8273ffffffffffffffffffffffffffffffffffffffff16611164826108ca565b73ffffffffffffffffffffffffffffffffffffffff16146111ba576040517f08c379a00000000000000000000000000000000000000000000000000000000081526004016111b19061332f565b60405180910390fd5b6004600082815260200190815260200160002060006101000a81549073ffffffffffffffffffffffffffffffffffffffff02191690556001600360008573ffffffffffffffffffffffffffffffffffffffff1673ffffffffffffffffffffffffffffffffffffffff168152602001908152602001600020600082825403925050819055506001600360008473ffffffffffffffffffffffffffffffffffffffff1673ffffffffffffffffffffffffffffffffffffffff16815260200190815260200160002060008282540192505081905550816002600083815260200190815260200160002060006101000a81548173ffffffffffffffffffffffffffffffffffffffff021916908373ffffffffffffffffffffffffffffffffffffffff160217905550808273ffffffffffffffffffffffffffffffffffffffff168473ffffffffffffffffffffffffffffffffffffffff167fddf252ad1be2c89b69c2b068fc378daa952ba7f163c4a11628f55a4df523b3ef60405160405180910390a46113468383836001611a61565b505050565b61135c81611357610efc565b611a67565b50565b6113698282610a18565b61143c5760016007600084815260200190815260200160002060000160008373ffffffffffffffffffffffffffffffffffffffff1673ffffffffffffffffffffffffffffffffffffffff16815260200190815260200160002060006101000a81548160ff0219169083151502179055506113e1610efc565b73ffffffffffffffffffffffffffffffffffffffff168173ffffffffffffffffffffffffffffffffffffffff16837f2f8788117e7eff1d82e926ec794901d17c78024a50270940304540a733656f0d60405160405180910390a45b5050565b61144a8282610a18565b1561151e5760006007600084815260200190815260200160002060000160008373ffffffffffffffffffffffffffffffffffffffff1673ffffffffffffffffffffffffffffffffffffffff16815260200190815260200160002060006101000a81548160ff0219169083151502179055506114c3610efc565b73ffffffffffffffffffffffffffffffffffffffff168173ffffffffffffffffffffffffffffffffffffffff16837ff6391f5c32d9c69d2a47ea670b442974b53935d1edc7fd64eb21e047a839171b60405160405180910390a45b5050565b600081600001549050919050565b6001816000016000828254019250508190555050565b611560828260405180602001604052806000815250611aec565b5050565b61156d82611a1a565b6115ac576040517f08c379a00000000000000000000000000000000000000000000000000000000081526004016115a390613453565b60405180910390fd5b806006600084815260200190815260200160002090816115cc919061361f565b507ff8e1a15aba9398e019f0b49df1a4fde98ee17ae345cb5f6b5e2c27f5033e8ce7826040516115fc9190612bc7565b60405180910390a15050565b61161182611a1a565b611650576040517f08c379a000000000000000000000000000000000000000000000000000000000815260040161164790613763565b60405180910390fd5b80600960008481526020019081526020016000209081611670919061361f565b505050565b60006002600083815260200190815260200160002060009054906101000a900473ffffffffffffffffffffffffffffffffffffffff169050919050565b8173ffffffffffffffffffffffffffffffffffffffff168373ffffffffffffffffffffffffffffffffffffffff1603611720576040517f08c379a0000000000000000000000000000000000000000000000000000000008152600401611717906137cf565b60405180910390fd5b80600560008573ffffffffffffffffffffffffffffffffffffffff1673ffffffffffffffffffffffffffffffffffffffff16815260200190815260200160002060008473ffffffffffffffffffffffffffffffffffffffff1673ffffffffffffffffffffffffffffffffffffffff16815260200190815260200160002060006101000a81548160ff0219169083151502179055508173ffffffffffffffffffffffffffffffffffffffff168373ffffffffffffffffffffffffffffffffffffffff167f17307eab39ab6107e8899845ad3d59bd9653f200f220920489ca2b5937696c318360405161181191906125ea565b60405180910390a3505050565b611829848484611052565b61183584848484611b47565b611874576040517f08c379a000000000000000000000000000000000000000000000000000000000815260040161186b90613861565b60405180910390fd5b50505050565b60606118a08273ffffffffffffffffffffffffffffffffffffffff16601460ff16611cce565b9050919050565b60606118b282610eb1565b60006006600084815260200190815260200160002080546118d290612de1565b80601f01602080910402602001604051908101604052809291908181526020018280546118fe90612de1565b801561194b5780601f106119205761010080835404028352916020019161194b565b820191906000526020600020905b81548152906001019060200180831161192e57829003601f168201915b50505050509050600061195c611f0a565b905060008151036119715781925050506119b4565b6000825111156119a657808260405160200161198e929190613881565b604051602081830303815290604052925050506119b4565b6119af84611f21565b925050505b919050565b6000634906490660e01b7bffffffffffffffffffffffffffffffffffffffffffffffffffffffff1916827bffffffffffffffffffffffffffffffffffffffffffffffffffffffff19161480611a135750611a1282611f89565b5b9050919050565b60008073ffffffffffffffffffffffffffffffffffffffff16611a3c83611675565b73ffffffffffffffffffffffffffffffffffffffff1614159050919050565b50505050565b50505050565b611a718282610a18565b611ae857611a7e8161187a565b611a8c8360001c6020611cce565b604051602001611a9d92919061393d565b6040516020818303038152906040526040517f08c379a0000000000000000000000000000000000000000000000000000000008152600401611adf9190612695565b60405180910390fd5b5050565b611af6838361206b565b611b036000848484611b47565b611b42576040517f08c379a0000000000000000000000000000000000000000000000000000000008152600401611b3990613861565b60405180910390fd5b505050565b6000611b688473ffffffffffffffffffffffffffffffffffffffff16612288565b15611cc1578373ffffffffffffffffffffffffffffffffffffffff1663150b7a02611b91610efc565b8786866040518563ffffffff1660e01b8152600401611bb394939291906139cc565b6020604051808303816000875af1925050508015611bef57506040513d601f19601f82011682018060405250810190611bec9190613a2d565b60015b611c71573d8060008114611c1f576040519150601f19603f3d011682016040523d82523d6000602084013e611c24565b606091505b506000815103611c69576040517f08c379a0000000000000000000000000000000000000000000000000000000008152600401611c6090613861565b60405180910390fd5b805181602001fd5b63150b7a0260e01b7bffffffffffffffffffffffffffffffffffffffffffffffffffffffff1916817bffffffffffffffffffffffffffffffffffffffffffffffffffffffff191614915050611cc6565b600190505b949350505050565b606060006002836002611ce19190613a89565b611ceb9190613acb565b67ffffffffffffffff811115611d0457611d0361290c565b5b6040519080825280601f01601f191660200182016040528015611d365781602001600182028036833780820191505090505b5090507f300000000000000000000000000000000000000000000000000000000000000081600081518110611d6e57611d6d613aff565b5b60200101907effffffffffffffffffffffffffffffffffffffffffffffffffffffffffffff1916908160001a9053507f780000000000000000000000000000000000000000000000000000000000000081600181518110611dd257611dd1613aff565b5b60200101907effffffffffffffffffffffffffffffffffffffffffffffffffffffffffffff1916908160001a90535060006001846002611e129190613a89565b611e1c9190613acb565b90505b6001811115611ebc577f3031323334353637383961626364656600000000000000000000000000000000600f861660108110611e5e57611e5d613aff565b5b1a60f81b828281518110611e7557611e74613aff565b5b60200101907effffffffffffffffffffffffffffffffffffffffffffffffffffffffffffff1916908160001a905350600485901c945080611eb590613b2e565b9050611e1f565b5060008414611f00576040517f08c379a0000000000000000000000000000000000000000000000000000000008152600401611ef790613ba3565b60405180910390fd5b8091505092915050565b606060405180602001604052806000815250905090565b6060611f2c82610eb1565b6000611f36611f0a565b90506000815111611f565760405180602001604052806000815250611f81565b80611f60846122ab565b604051602001611f71929190613881565b6040516020818303038152906040525b915050919050565b60007f80ac58cd000000000000000000000000000000000000000000000000000000007bffffffffffffffffffffffffffffffffffffffffffffffffffffffff1916827bffffffffffffffffffffffffffffffffffffffffffffffffffffffff1916148061205457507f5b5e139f000000000000000000000000000000000000000000000000000000007bffffffffffffffffffffffffffffffffffffffffffffffffffffffff1916827bffffffffffffffffffffffffffffffffffffffffffffffffffffffff1916145b80612064575061206382612379565b5b9050919050565b600073ffffffffffffffffffffffffffffffffffffffff168273ffffffffffffffffffffffffffffffffffffffff16036120da576040517f08c379a00000000000000000000000000000000000000000000000000000000081526004016120d190613c0f565b60405180910390fd5b6120e381611a1a565b15612123576040517f08c379a000000000000000000000000000000000000000000000000000000000815260040161211a90613c7b565b60405180910390fd5b612131600083836001611a5b565b61213a81611a1a565b1561217a576040517f08c379a000000000000000000000000000000000000000000000000000000000815260040161217190613c7b565b60405180910390fd5b6001600360008473ffffffffffffffffffffffffffffffffffffffff1673ffffffffffffffffffffffffffffffffffffffff16815260200190815260200160002060008282540192505081905550816002600083815260200190815260200160002060006101000a81548173ffffffffffffffffffffffffffffffffffffffff021916908373ffffffffffffffffffffffffffffffffffffffff160217905550808273ffffffffffffffffffffffffffffffffffffffff16600073ffffffffffffffffffffffffffffffffffffffff167fddf252ad1be2c89b69c2b068fc378daa952ba7f163c4a11628f55a4df523b3ef60405160405180910390a4612284600083836001611a61565b5050565b6000808273ffffffffffffffffffffffffffffffffffffffff163b119050919050565b6060600060016122ba846123e3565b01905060008167ffffffffffffffff8111156122d9576122d861290c565b5b6040519080825280601f01601f19166020018201604052801561230b5781602001600182028036833780820191505090505b509050600082602001820190505b60011561236e578080600190039150507f3031323334353637383961626364656600000000000000000000000000000000600a86061a8153600a858161236257612361613c9b565b5b04945060008503612319575b819350505050919050565b60007f01ffc9a7000000000000000000000000000000000000000000000000000000007bffffffffffffffffffffffffffffffffffffffffffffffffffffffff1916827bffffffffffffffffffffffffffffffffffffffffffffffffffffffff1916149050919050565b600080600090507a184f03e93ff9f4daa797ed6e38ed64bf6a1f0100000000000000008310612441577a184f03e93ff9f4daa797ed6e38ed64bf6a1f010000000000000000838161243757612436613c9b565b5b0492506040810190505b6d04ee2d6d415b85acef8100000000831061247e576d04ee2d6d415b85acef8100000000838161247457612473613c9b565b5b0492506020810190505b662386f26fc1000083106124ad57662386f26fc1000083816124a3576124a2613c9b565b5b0492506010810190505b6305f5e10083106124d6576305f5e10083816124cc576124cb613c9b565b5b0492506008810190505b61271083106124fb5761271083816124f1576124f0613c9b565b5b0492506004810190505b6064831061251e576064838161251457612513613c9b565b5b0492506002810190505b600a831061252d576001810190505b80915050919050565b6000604051905090565b600080fd5b600080fd5b60007fffffffff0000000000000000000000000000000000000000000000000000000082169050919050565b61257f8161254a565b811461258a57600080fd5b50565b60008135905061259c81612576565b92915050565b6000602082840312156125b8576125b7612540565b5b60006125c68482850161258d565b91505092915050565b60008115159050919050565b6125e4816125cf565b82525050565b60006020820190506125ff60008301846125db565b92915050565b600081519050919050565b600082825260208201905092915050565b60005b8381101561263f578082015181840152602081019050612624565b60008484015250505050565b6000601f19601f8301169050919050565b600061266782612605565b6126718185612610565b9350612681818560208601612621565b61268a8161264b565b840191505092915050565b600060208201905081810360008301526126af818461265c565b905092915050565b6000819050919050565b6126ca816126b7565b81146126d557600080fd5b50565b6000813590506126e7816126c1565b92915050565b60006020828403121561270357612702612540565b5b6000612711848285016126d8565b91505092915050565b600073ffffffffffffffffffffffffffffffffffffffff82169050919050565b60006127458261271a565b9050919050565b6127558161273a565b82525050565b6000602082019050612770600083018461274c565b92915050565b61277f8161273a565b811461278a57600080fd5b50565b60008135905061279c81612776565b92915050565b600080604083850312156127b9576127b8612540565b5b60006127c78582860161278d565b92505060206127d8858286016126d8565b9150509250929050565b6000806000606084860312156127fb576127fa612540565b5b60006128098682870161278d565b935050602061281a8682870161278d565b925050604061282b868287016126d8565b9150509250925092565b6000819050919050565b61284881612835565b811461285357600080fd5b50565b6000813590506128658161283f565b92915050565b60006020828403121561288157612880612540565b5b600061288f84828501612856565b91505092915050565b6128a181612835565b82525050565b60006020820190506128bc6000830184612898565b92915050565b600080604083850312156128d9576128d8612540565b5b60006128e785828601612856565b92505060206128f88582860161278d565b9150509250929050565b600080fd5b600080fd5b7f4e487b7100000000000000000000000000000000000000000000000000000000600052604160045260246000fd5b6129448261264b565b810181811067ffffffffffffffff821117156129635761296261290c565b5b80604052505050565b6000612976612536565b9050612982828261293b565b919050565b600067ffffffffffffffff8211156129a2576129a161290c565b5b6129ab8261264b565b9050602081019050919050565b82818337600083830152505050565b60006129da6129d584612987565b61296c565b9050828152602081018484840111156129f6576129f5612907565b5b612a018482856129b8565b509392505050565b600082601f830112612a1e57612a1d612902565b5b8135612a2e8482602086016129c7565b91505092915050565b600080fd5b600080fd5b60008083601f840112612a5757612a56612902565b5b8235905067ffffffffffffffff811115612a7457612a73612a37565b5b602083019150836001820283011115612a9057612a8f612a3c565b5b9250929050565b600080600080600080600060a0888a031215612ab657612ab5612540565b5b6000612ac48a828b0161278d565b975050602088013567ffffffffffffffff811115612ae557612ae4612545565b5b612af18a828b01612a09565b965050604088013567ffffffffffffffff811115612b1257612b11612545565b5b612b1e8a828b01612a09565b955050606088013567ffffffffffffffff811115612b3f57612b3e612545565b5b612b4b8a828b01612a41565b9450945050608088013567ffffffffffffffff811115612b6e57612b6d612545565b5b612b7a8a828b01612a41565b925092505092959891949750929550565b600060208284031215612ba157612ba0612540565b5b6000612baf8482850161278d565b91505092915050565b612bc1816126b7565b82525050565b6000602082019050612bdc6000830184612bb8565b92915050565b612beb816125cf565b8114612bf657600080fd5b50565b600081359050612c0881612be2565b92915050565b60008060408385031215612c2557612c24612540565b5b6000612c338582860161278d565b9250506020612c4485828601612bf9565b9150509250929050565b600067ffffffffffffffff821115612c6957612c6861290c565b5b612c728261264b565b9050602081019050919050565b6000612c92612c8d84612c4e565b61296c565b905082815260208101848484011115612cae57612cad612907565b5b612cb98482856129b8565b509392505050565b600082601f830112612cd657612cd5612902565b5b8135612ce6848260208601612c7f565b91505092915050565b60008060008060808587031215612d0957612d08612540565b5b6000612d178782880161278d565b9450506020612d288782880161278d565b9350506040612d39878288016126d8565b925050606085013567ffffffffffffffff811115612d5a57612d59612545565b5b612d6687828801612cc1565b91505092959194509250565b60008060408385031215612d8957612d88612540565b5b6000612d978582860161278d565b9250506020612da88582860161278d565b9150509250929050565b7f4e487b7100000000000000000000000000000000000000000000000000000000600052602260045260246000fd5b60006002820490506001821680612df957607f821691505b602082108103612e0c57612e0b612db2565b5b50919050565b7f4552433732313a20617070726f76616c20746f2063757272656e74206f776e6560008201527f7200000000000000000000000000000000000000000000000000000000000000602082015250565b6000612e6e602183612610565b9150612e7982612e12565b604082019050919050565b60006020820190508181036000830152612e9d81612e61565b9050919050565b7f4552433732313a20617070726f76652063616c6c6572206973206e6f7420746f60008201527f6b656e206f776e6572206f7220617070726f76656420666f7220616c6c000000602082015250565b6000612f00603d83612610565b9150612f0b82612ea4565b604082019050919050565b60006020820190508181036000830152612f2f81612ef3565b9050919050565b7f4552433732313a2063616c6c6572206973206e6f7420746f6b656e206f776e6560008201527f72206f7220617070726f76656400000000000000000000000000000000000000602082015250565b6000612f92602d83612610565b9150612f9d82612f36565b604082019050919050565b60006020820190508181036000830152612fc181612f85565b9050919050565b7f416363657373436f6e74726f6c3a2063616e206f6e6c792072656e6f756e636560008201527f20726f6c657320666f722073656c660000000000000000000000000000000000602082015250565b6000613024602f83612610565b915061302f82612fc8565b604082019050919050565b6000602082019050818103600083015261305381613017565b9050919050565b600081905092915050565b6000613071838561305a565b935061307e8385846129b8565b82840190509392505050565b6000613097828486613065565b91508190509392505050565b7f4552433732313a20696e76616c696420746f6b656e2049440000000000000000600082015250565b60006130d9601883612610565b91506130e4826130a3565b602082019050919050565b60006020820190508181036000830152613108816130cc565b9050919050565b7f4552433732313a2061646472657373207a65726f206973206e6f74206120766160008201527f6c6964206f776e65720000000000000000000000000000000000000000000000602082015250565b600061316b602983612610565b91506131768261310f565b604082019050919050565b6000602082019050818103600083015261319a8161315e565b9050919050565b7f455243373231436f413a20206163636f756e7420000000000000000000000000600082015250565b60006131d760148361305a565b91506131e2826131a1565b601482019050919050565b60006131f882612605565b613202818561305a565b9350613212818560208601612621565b80840191505092915050565b7f206d757374206265206f776e6572206f7220726567697374657265642061757460008201527f68656e74696361746f7200000000000000000000000000000000000000000000602082015250565b600061327a602a8361305a565b91506132858261321e565b602a82019050919050565b600061329b826131ca565b91506132a782846131ed565b91506132b28261326d565b915081905092915050565b7f4552433732313a207472616e736665722066726f6d20696e636f72726563742060008201527f6f776e6572000000000000000000000000000000000000000000000000000000602082015250565b6000613319602583612610565b9150613324826132bd565b604082019050919050565b600060208201905081810360008301526133488161330c565b9050919050565b7f4552433732313a207472616e7366657220746f20746865207a65726f2061646460008201527f7265737300000000000000000000000000000000000000000000000000000000602082015250565b60006133ab602483612610565b91506133b68261334f565b604082019050919050565b600060208201905081810360008301526133da8161339e565b9050919050565b7f45524337323155524953746f726167653a2055524920736574206f66206e6f6e60008201527f6578697374656e7420746f6b656e000000000000000000000000000000000000602082015250565b600061343d602e83612610565b9150613448826133e1565b604082019050919050565b6000602082019050818103600083015261346c81613430565b9050919050565b60008190508160005260206000209050919050565b60006020601f8301049050919050565b600082821b905092915050565b6000600883026134d57fffffffffffffffffffffffffffffffffffffffffffffffffffffffffffffffff82613498565b6134df8683613498565b95508019841693508086168417925050509392505050565b6000819050919050565b600061351c613517613512846126b7565b6134f7565b6126b7565b9050919050565b6000819050919050565b61353683613501565b61354a61354282613523565b8484546134a5565b825550505050565b600090565b61355f613552565b61356a81848461352d565b505050565b5b8181101561358e57613583600082613557565b600181019050613570565b5050565b601f8211156135d3576135a481613473565b6135ad84613488565b810160208510156135bc578190505b6135d06135c885613488565b83018261356f565b50505b505050565b600082821c905092915050565b60006135f6600019846008026135d8565b1980831691505092915050565b600061360f83836135e5565b9150826002028217905092915050565b61362882612605565b67ffffffffffffffff8111156136415761364061290c565b5b61364b8254612de1565b613656828285613592565b600060209050601f8311600181146136895760008415613677578287015190505b6136818582613603565b8655506136e9565b601f19841661369786613473565b60005b828110156136bf5784890151825560018201915060208501945060208101905061369a565b868310156136dc57848901516136d8601f8916826135e5565b8355505b6001600288020188555050505b505050505050565b7f455243373231436f413a205552492073657420746f206e6f6e2065786973746960008201527f6e6720746f6b656e000000000000000000000000000000000000000000000000602082015250565b600061374d602883612610565b9150613758826136f1565b604082019050919050565b6000602082019050818103600083015261377c81613740565b9050919050565b7f4552433732313a20617070726f766520746f2063616c6c657200000000000000600082015250565b60006137b9601983612610565b91506137c482613783565b602082019050919050565b600060208201905081810360008301526137e8816137ac565b9050919050565b7f4552433732313a207472616e7366657220746f206e6f6e20455243373231526560008201527f63656976657220696d706c656d656e7465720000000000000000000000000000602082015250565b600061384b603283612610565b9150613856826137ef565b604082019050919050565b6000602082019050818103600083015261387a8161383e565b9050919050565b600061388d82856131ed565b915061389982846131ed565b91508190509392505050565b7f416363657373436f6e74726f6c3a206163636f756e7420000000000000000000600082015250565b60006138db60178361305a565b91506138e6826138a5565b601782019050919050565b7f206973206d697373696e6720726f6c6520000000000000000000000000000000600082015250565b600061392760118361305a565b9150613932826138f1565b601182019050919050565b6000613948826138ce565b915061395482856131ed565b915061395f8261391a565b915061396b82846131ed565b91508190509392505050565b600081519050919050565b600082825260208201905092915050565b600061399e82613977565b6139a88185613982565b93506139b8818560208601612621565b6139c18161264b565b840191505092915050565b60006080820190506139e1600083018761274c565b6139ee602083018661274c565b6139fb6040830185612bb8565b8181036060830152613a0d8184613993565b905095945050505050565b600081519050613a2781612576565b92915050565b600060208284031215613a4357613a42612540565b5b6000613a5184828501613a18565b91505092915050565b7f4e487b7100000000000000000000000000000000000000000000000000000000600052601160045260246000fd5b6000613a94826126b7565b9150613a9f836126b7565b9250828202613aad816126b7565b91508282048414831517613ac457613ac3613a5a565b5b5092915050565b6000613ad6826126b7565b9150613ae1836126b7565b9250828201905080821115613af957613af8613a5a565b5b92915050565b7f4e487b7100000000000000000000000000000000000000000000000000000000600052603260045260246000fd5b6000613b39826126b7565b915060008203613b4c57613b4b613a5a565b5b600182039050919050565b7f537472696e67733a20686578206c656e67746820696e73756666696369656e74600082015250565b6000613b8d602083612610565b9150613b9882613b57565b602082019050919050565b60006020820190508181036000830152613bbc81613b80565b9050919050565b7f4552433732313a206d696e7420746f20746865207a65726f2061646472657373600082015250565b6000613bf9602083612610565b9150613c0482613bc3565b602082019050919050565b60006020820190508181036000830152613c2881613bec565b9050919050565b7f4552433732313a20746f6b656e20616c7265616479206d696e74656400000000600082015250565b6000613c65601c83612610565b9150613c7082613c2f565b602082019050919050565b60006020820190508181036000830152613c9481613c58565b9050919050565b7f4e487b7100000000000000000000000000000000000000000000000000000000600052601260045260246000fdfea2646970667358221220a5ef72c89d26e6e049df2be76e0b823c11c39878ecb3767d521bd2bd4e97f4ff64736f6c63430008130033",
  "linkReferences": {},
  "deployedLinkReferences": {}
}