{
  "_format": "hh-sol-artifact-1",
  "contractName": "ERC721CoA_Escrow",
  "sourceName": "contracts/ERC721CoA_Escrow.sol",
  "abi": [
    {
      "anonymous": false,
      "inputs": [
        {
          "indexed": false,
          "internalType": "uint256",
          "name": "itemId",
          "type": "uint256"
        },
        {
          "indexed": true,
          "internalType": "address",
          "name": "nftContract",
          "type": "address"
        },
        {
          "indexed": true,
          "internalType": "uint256",
          "name": "tokenId",
          "type": "uint256"
        },
        {
          "indexed": true,
          "internalType": "address",
          "name": "claimer",
          "type": "address"
        }
      ],
      "name": "ItemClaimed",
      "type": "event"
    },
    {
      "anonymous": false,
      "inputs": [
        {
          "indexed": false,
          "internalType": "uint256",
          "name": "itemId",
          "type": "uint256"
        },
        {
          "indexed": true,
          "internalType": "address",
          "name": "nftContract",
          "type": "address"
        },
        {
          "indexed": true,
          "internalType": "uint256",
          "name": "tokenId",
          "type": "uint256"
        },
        {
          "indexed": false,
          "internalType": "address",
          "name": "lister",
          "type": "address"
        },
        {
          "indexed": true,
          "internalType": "address",
          "name": "claimer",
          "type": "address"
        }
      ],
      "name": "ItemListed",
      "type": "event"
    },
    {
      "anonymous": false,
      "inputs": [
        {
          "indexed": false,
          "internalType": "uint256",
          "name": "itemId",
          "type": "uint256"
        },
        {
          "indexed": true,
          "internalType": "address",
          "name": "nftContract",
          "type": "address"
        },
        {
          "indexed": true,
          "internalType": "uint256",
          "name": "tokenId",
          "type": "uint256"
        },
        {
          "indexed": true,
          "internalType": "address",
          "name": "unlister",
          "type": "address"
        }
      ],
      "name": "ItemUnlisted",
      "type": "event"
    },
    {
      "anonymous": false,
      "inputs": [
        {
          "indexed": true,
          "internalType": "address",
          "name": "previousOwner",
          "type": "address"
        },
        {
          "indexed": true,
          "internalType": "address",
          "name": "newOwner",
          "type": "address"
        }
      ],
      "name": "OwnershipTransferred",
      "type": "event"
    },
    {
      "inputs": [
        {
          "internalType": "uint256",
          "name": "",
          "type": "uint256"
        }
      ],
      "name": "_itemsListed",
      "outputs": [
        {
          "internalType": "uint256",
          "name": "itemId",
          "type": "uint256"
        },
        {
          "internalType": "contract IERC721CoA",
          "name": "nftContract",
          "type": "address"
        },
        {
          "internalType": "uint256",
          "name": "tokenId",
          "type": "uint256"
        },
        {
          "internalType": "address",
          "name": "lister",
          "type": "address"
        },
        {
          "internalType": "address",
          "name": "claimer",
          "type": "address"
        },
        {
          "internalType": "enum ERC721CoA_Escrow.Status",
          "name": "status",
          "type": "uint8"
        }
      ],
      "stateMutability": "view",
      "type": "function"
    },
    {
      "inputs": [
        {
          "internalType": "uint256",
          "name": "_itemId",
          "type": "uint256"
        }
      ],
      "name": "cancellListing",
      "outputs": [],
      "stateMutability": "nonpayable",
      "type": "function"
    },
    {
      "inputs": [
        {
          "internalType": "uint256",
          "name": "_itemId",
          "type": "uint256"
        }
      ],
      "name": "claimCertificate",
      "outputs": [],
      "stateMutability": "nonpayable",
      "type": "function"
    },
    {
      "inputs": [
        {
          "internalType": "contract IERC721CoA",
          "name": "_nftContract",
          "type": "address"
        },
        {
          "internalType": "uint256",
          "name": "_tokenId",
          "type": "uint256"
        },
        {
          "internalType": "address",
          "name": "_claimer",
          "type": "address"
        }
      ],
      "name": "listCertificate",
      "outputs": [],
      "stateMutability": "nonpayable",
      "type": "function"
    },
    {
      "inputs": [],
      "name": "listedAmount",
      "outputs": [
        {
          "internalType": "uint256",
          "name": "listed",
          "type": "uint256"
        }
      ],
      "stateMutability": "view",
      "type": "function"
    },
    {
      "inputs": [
        {
          "internalType": "address",
          "name": "",
          "type": "address"
        },
        {
          "internalType": "address",
          "name": "",
          "type": "address"
        },
        {
          "internalType": "uint256",
          "name": "",
          "type": "uint256"
        },
        {
          "internalType": "bytes",
          "name": "",
          "type": "bytes"
        }
      ],
      "name": "onERC721Received",
      "outputs": [
        {
          "internalType": "bytes4",
          "name": "",
          "type": "bytes4"
        }
      ],
      "stateMutability": "nonpayable",
      "type": "function"
    },
    {
      "inputs": [],
      "name": "owner",
      "outputs": [
        {
          "internalType": "address",
          "name": "",
          "type": "address"
        }
      ],
      "stateMutability": "view",
      "type": "function"
    },
    {
      "inputs": [],
      "name": "renounceOwnership",
      "outputs": [],
      "stateMutability": "nonpayable",
      "type": "function"
    },
    {
      "inputs": [
        {
          "internalType": "address",
          "name": "newOwner",
          "type": "address"
        }
      ],
      "name": "transferOwnership",
      "outputs": [],
      "stateMutability": "nonpayable",
      "type": "function"
    }
  ],
  "bytecode": "0x608060405234801561001057600080fd5b50600160008190555061003561002a61003a60201b60201c565b61004260201b60201c565b610108565b600033905090565b6000600160009054906101000a900473ffffffffffffffffffffffffffffffffffffffff16905081600160006101000a81548173ffffffffffffffffffffffffffffffffffffffff021916908373ffffffffffffffffffffffffffffffffffffffff1602179055508173ffffffffffffffffffffffffffffffffffffffff168173ffffffffffffffffffffffffffffffffffffffff167f8be0079c531659141344cd1fd0a4f28419497f9722a3daafe3b4186f6b6457e060405160405180910390a35050565b61232680620001186000396000f3fe608060405234801561001057600080fd5b50600436106100935760003560e01c8063715018a611610066578063715018a61461011e5780637c8b93f4146101285780638da5cb5b1461015d578063d9a26b3b1461017b578063f2fde38b1461019757610093565b8063150b7a02146100985780632587ac5c146100c857806349b9a763146100e457806367aa541c14610100575b600080fd5b6100b260048036038101906100ad919061168c565b6101b3565b6040516100bf919061174a565b60405180910390f35b6100e260048036038101906100dd91906117a3565b6101c7565b005b6100fe60048036038101906100f991906117f6565b610629565b005b61010861090d565b6040516101159190611832565b60405180910390f35b61012661091e565b005b610142600480360381019061013d91906117f6565b610932565b60405161015496959493929190611932565b60405180910390f35b6101656109db565b6040516101729190611993565b60405180910390f35b610195600480360381019061019091906117f6565b610a05565b005b6101b160048036038101906101ac91906119ae565b610dc8565b005b600063150b7a0260e01b9050949350505050565b6101cf610e4b565b6101d7610e9a565b73ffffffffffffffffffffffffffffffffffffffff168373ffffffffffffffffffffffffffffffffffffffff16636352211e846040518263ffffffff1660e01b81526004016102269190611832565b602060405180830381865afa158015610243573d6000803e3d6000fd5b505050506040513d601f19601f8201168201806040525081019061026791906119f0565b73ffffffffffffffffffffffffffffffffffffffff161461028e610289610e9a565b610ea2565b60405160200161029e9190611b26565b604051602081830303815290604052906102ee576040517f08c379a00000000000000000000000000000000000000000000000000000000081526004016102e59190611b9d565b60405180910390fd5b508273ffffffffffffffffffffffffffffffffffffffff1663e985e9c5610313610e9a565b306040518363ffffffff1660e01b8152600401610331929190611bbf565b602060405180830381865afa15801561034e573d6000803e3d6000fd5b505050506040513d601f19601f820116820180604052508101906103729190611c20565b61037b30610ea2565b60405160200161038b9190611d0b565b604051602081830303815290604052906103db576040517f08c379a00000000000000000000000000000000000000000000000000000000081526004016103d29190611b9d565b60405180910390fd5b5060006103e86002610ecf565b90506103f46002610edd565b6040518060c001604052808281526020018573ffffffffffffffffffffffffffffffffffffffff16815260200184815260200161042f610e9a565b73ffffffffffffffffffffffffffffffffffffffff1681526020018373ffffffffffffffffffffffffffffffffffffffff1681526020016001600281111561047a576104796118bb565b5b815250600360008381526020019081526020016000206000820151816000015560208201518160010160006101000a81548173ffffffffffffffffffffffffffffffffffffffff021916908373ffffffffffffffffffffffffffffffffffffffff1602179055506040820151816002015560608201518160030160006101000a81548173ffffffffffffffffffffffffffffffffffffffff021916908373ffffffffffffffffffffffffffffffffffffffff16021790555060808201518160040160006101000a81548173ffffffffffffffffffffffffffffffffffffffff021916908373ffffffffffffffffffffffffffffffffffffffff16021790555060a08201518160040160146101000a81548160ff021916908360028111156105a4576105a36118bb565b5b02179055509050508173ffffffffffffffffffffffffffffffffffffffff16838573ffffffffffffffffffffffffffffffffffffffff167f1361183d3619b83f772e8c55c1fb823a1d95ee5f906e8dd77a4ca29dfccaf03d84610605610e9a565b604051610613929190611d38565b60405180910390a450610624610ef3565b505050565b610631610e4b565b600061063d6002610ecf565b90506000821015801561064f57508082105b61065883610efd565b6040516020016106689190611df9565b604051602081830303815290604052906106b8576040517f08c379a00000000000000000000000000000000000000000000000000000000081526004016106af9190611b9d565b60405180910390fd5b5060006003600084815260200190815260200160002090508060030160009054906101000a900473ffffffffffffffffffffffffffffffffffffffff1673ffffffffffffffffffffffffffffffffffffffff16610713610e9a565b73ffffffffffffffffffffffffffffffffffffffff161461073a610735610e9a565b610ea2565b60405160200161074a9190611e72565b6040516020818303038152906040529061079a576040517f08c379a00000000000000000000000000000000000000000000000000000000081526004016107919190611b9d565b60405180910390fd5b50600160028111156107af576107ae6118bb565b5b8160040160149054906101000a900460ff1660028111156107d3576107d26118bb565b5b146107dd84610efd565b6040516020016107ed9190611f11565b6040516020818303038152906040529061083d576040517f08c379a00000000000000000000000000000000000000000000000000000000081526004016108349190611b9d565b60405180910390fd5b5060008160040160146101000a81548160ff02191690836002811115610866576108656118bb565b5b0217905550610873610e9a565b73ffffffffffffffffffffffffffffffffffffffff1681600201548260010160009054906101000a900473ffffffffffffffffffffffffffffffffffffffff1673ffffffffffffffffffffffffffffffffffffffff167f719f17bfa6d819bf3a088c5e64dfae60d609f271b8f537d6690c90b5000b1d58866040516108f89190611832565b60405180910390a4505061090a610ef3565b50565b60006109196002610ecf565b905090565b610926610fcb565b6109306000611049565b565b60036020528060005260406000206000915090508060000154908060010160009054906101000a900473ffffffffffffffffffffffffffffffffffffffff16908060020154908060030160009054906101000a900473ffffffffffffffffffffffffffffffffffffffff16908060040160009054906101000a900473ffffffffffffffffffffffffffffffffffffffff16908060040160149054906101000a900460ff16905086565b6000600160009054906101000a900473ffffffffffffffffffffffffffffffffffffffff16905090565b610a0d610e4b565b6000610a196002610ecf565b905060008210158015610a2b57508082105b610a3483610efd565b604051602001610a449190611df9565b60405160208183030381529060405290610a94576040517f08c379a0000000000000000000000000000000000000000000000000000000008152600401610a8b9190611b9d565b60405180910390fd5b5060006003600084815260200190815260200160002090508060040160009054906101000a900473ffffffffffffffffffffffffffffffffffffffff1673ffffffffffffffffffffffffffffffffffffffff16610aef610e9a565b73ffffffffffffffffffffffffffffffffffffffff1614610b16610b11610e9a565b610ea2565b604051602001610b269190611f8a565b60405160208183030381529060405290610b76576040517f08c379a0000000000000000000000000000000000000000000000000000000008152600401610b6d9190611b9d565b60405180910390fd5b5060016002811115610b8b57610b8a6118bb565b5b8160040160149054906101000a900460ff166002811115610baf57610bae6118bb565b5b14610bb984610efd565b604051602001610bc99190611f11565b60405160208183030381529060405290610c19576040517f08c379a0000000000000000000000000000000000000000000000000000000008152600401610c109190611b9d565b60405180910390fd5b5060028160040160146101000a81548160ff02191690836002811115610c4257610c416118bb565b5b02179055508060010160009054906101000a900473ffffffffffffffffffffffffffffffffffffffff1673ffffffffffffffffffffffffffffffffffffffff166342842e0e8260030160009054906101000a900473ffffffffffffffffffffffffffffffffffffffff168360040160009054906101000a900473ffffffffffffffffffffffffffffffffffffffff1684600201546040518463ffffffff1660e01b8152600401610cf493929190611fb7565b600060405180830381600087803b158015610d0e57600080fd5b505af1158015610d22573d6000803e3d6000fd5b50505050610d2e610e9a565b73ffffffffffffffffffffffffffffffffffffffff1681600201548260010160009054906101000a900473ffffffffffffffffffffffffffffffffffffffff1673ffffffffffffffffffffffffffffffffffffffff167ffbc2604a48c53243be94c5fe4eabbd246dfaf022ecaa6748802f8f7ebd9fe22c86604051610db39190611832565b60405180910390a45050610dc5610ef3565b50565b610dd0610fcb565b600073ffffffffffffffffffffffffffffffffffffffff168173ffffffffffffffffffffffffffffffffffffffff1603610e3f576040517f08c379a0000000000000000000000000000000000000000000000000000000008152600401610e3690612060565b60405180910390fd5b610e4881611049565b50565b600260005403610e90576040517f08c379a0000000000000000000000000000000000000000000000000000000008152600401610e87906120cc565b60405180910390fd5b6002600081905550565b600033905090565b6060610ec88273ffffffffffffffffffffffffffffffffffffffff16601460ff1661110f565b9050919050565b600081600001549050919050565b6001816000016000828254019250508190555050565b6001600081905550565b606060006001610f0c8461134b565b01905060008167ffffffffffffffff811115610f2b57610f2a611561565b5b6040519080825280601f01601f191660200182016040528015610f5d5781602001600182028036833780820191505090505b509050600082602001820190505b600115610fc0578080600190039150507f3031323334353637383961626364656600000000000000000000000000000000600a86061a8153600a8581610fb457610fb36120ec565b5b04945060008503610f6b575b819350505050919050565b610fd3610e9a565b73ffffffffffffffffffffffffffffffffffffffff16610ff16109db565b73ffffffffffffffffffffffffffffffffffffffff1614611047576040517f08c379a000000000000000000000000000000000000000000000000000000000815260040161103e90612167565b60405180910390fd5b565b6000600160009054906101000a900473ffffffffffffffffffffffffffffffffffffffff16905081600160006101000a81548173ffffffffffffffffffffffffffffffffffffffff021916908373ffffffffffffffffffffffffffffffffffffffff1602179055508173ffffffffffffffffffffffffffffffffffffffff168173ffffffffffffffffffffffffffffffffffffffff167f8be0079c531659141344cd1fd0a4f28419497f9722a3daafe3b4186f6b6457e060405160405180910390a35050565b60606000600283600261112291906121b6565b61112c91906121f8565b67ffffffffffffffff81111561114557611144611561565b5b6040519080825280601f01601f1916602001820160405280156111775781602001600182028036833780820191505090505b5090507f3000000000000000000000000000000000000000000000000000000000000000816000815181106111af576111ae61222c565b5b60200101907effffffffffffffffffffffffffffffffffffffffffffffffffffffffffffff1916908160001a9053507f7800000000000000000000000000000000000000000000000000000000000000816001815181106112135761121261222c565b5b60200101907effffffffffffffffffffffffffffffffffffffffffffffffffffffffffffff1916908160001a9053506000600184600261125391906121b6565b61125d91906121f8565b90505b60018111156112fd577f3031323334353637383961626364656600000000000000000000000000000000600f86166010811061129f5761129e61222c565b5b1a60f81b8282815181106112b6576112b561222c565b5b60200101907effffffffffffffffffffffffffffffffffffffffffffffffffffffffffffff1916908160001a905350600485901c9450806112f69061225b565b9050611260565b5060008414611341576040517f08c379a0000000000000000000000000000000000000000000000000000000008152600401611338906122d0565b60405180910390fd5b8091505092915050565b600080600090507a184f03e93ff9f4daa797ed6e38ed64bf6a1f01000000000000000083106113a9577a184f03e93ff9f4daa797ed6e38ed64bf6a1f010000000000000000838161139f5761139e6120ec565b5b0492506040810190505b6d04ee2d6d415b85acef810000000083106113e6576d04ee2d6d415b85acef810000000083816113dc576113db6120ec565b5b0492506020810190505b662386f26fc10000831061141557662386f26fc10000838161140b5761140a6120ec565b5b0492506010810190505b6305f5e100831061143e576305f5e1008381611434576114336120ec565b5b0492506008810190505b6127108310611463576127108381611459576114586120ec565b5b0492506004810190505b60648310611486576064838161147c5761147b6120ec565b5b0492506002810190505b600a8310611495576001810190505b80915050919050565b6000604051905090565b600080fd5b600080fd5b600073ffffffffffffffffffffffffffffffffffffffff82169050919050565b60006114dd826114b2565b9050919050565b6114ed816114d2565b81146114f857600080fd5b50565b60008135905061150a816114e4565b92915050565b6000819050919050565b61152381611510565b811461152e57600080fd5b50565b6000813590506115408161151a565b92915050565b600080fd5b600080fd5b6000601f19601f8301169050919050565b7f4e487b7100000000000000000000000000000000000000000000000000000000600052604160045260246000fd5b61159982611550565b810181811067ffffffffffffffff821117156115b8576115b7611561565b5b80604052505050565b60006115cb61149e565b90506115d78282611590565b919050565b600067ffffffffffffffff8211156115f7576115f6611561565b5b61160082611550565b9050602081019050919050565b82818337600083830152505050565b600061162f61162a846115dc565b6115c1565b90508281526020810184848401111561164b5761164a61154b565b5b61165684828561160d565b509392505050565b600082601f83011261167357611672611546565b5b813561168384826020860161161c565b91505092915050565b600080600080608085870312156116a6576116a56114a8565b5b60006116b4878288016114fb565b94505060206116c5878288016114fb565b93505060406116d687828801611531565b925050606085013567ffffffffffffffff8111156116f7576116f66114ad565b5b6117038782880161165e565b91505092959194509250565b60007fffffffff0000000000000000000000000000000000000000000000000000000082169050919050565b6117448161170f565b82525050565b600060208201905061175f600083018461173b565b92915050565b6000611770826114d2565b9050919050565b61178081611765565b811461178b57600080fd5b50565b60008135905061179d81611777565b92915050565b6000806000606084860312156117bc576117bb6114a8565b5b60006117ca8682870161178e565b93505060206117db86828701611531565b92505060406117ec868287016114fb565b9150509250925092565b60006020828403121561180c5761180b6114a8565b5b600061181a84828501611531565b91505092915050565b61182c81611510565b82525050565b60006020820190506118476000830184611823565b92915050565b6000819050919050565b600061187261186d611868846114b2565b61184d565b6114b2565b9050919050565b600061188482611857565b9050919050565b600061189682611879565b9050919050565b6118a68161188b565b82525050565b6118b5816114d2565b82525050565b7f4e487b7100000000000000000000000000000000000000000000000000000000600052602160045260246000fd5b600381106118fb576118fa6118bb565b5b50565b600081905061190c826118ea565b919050565b600061191c826118fe565b9050919050565b61192c81611911565b82525050565b600060c0820190506119476000830189611823565b611954602083018861189d565b6119616040830187611823565b61196e60608301866118ac565b61197b60808301856118ac565b61198860a0830184611923565b979650505050505050565b60006020820190506119a860008301846118ac565b92915050565b6000602082840312156119c4576119c36114a8565b5b60006119d2848285016114fb565b91505092915050565b6000815190506119ea816114e4565b92915050565b600060208284031215611a0657611a056114a8565b5b6000611a14848285016119db565b91505092915050565b600081905092915050565b7f455243373231436f415f457363726f773a206163636f756e7420000000000000600082015250565b6000611a5e601a83611a1d565b9150611a6982611a28565b601a82019050919050565b600081519050919050565b60005b83811015611a9d578082015181840152602081019050611a82565b60008484015250505050565b6000611ab482611a74565b611abe8185611a1d565b9350611ace818560208601611a7f565b80840191505092915050565b7f206973206e6f7420746f6b656e206f776e657200000000000000000000000000600082015250565b6000611b10601383611a1d565b9150611b1b82611ada565b601382019050919050565b6000611b3182611a51565b9150611b3d8284611aa9565b9150611b4882611b03565b915081905092915050565b600082825260208201905092915050565b6000611b6f82611a74565b611b798185611b53565b9350611b89818560208601611a7f565b611b9281611550565b840191505092915050565b60006020820190508181036000830152611bb78184611b64565b905092915050565b6000604082019050611bd460008301856118ac565b611be160208301846118ac565b9392505050565b60008115159050919050565b611bfd81611be8565b8114611c0857600080fd5b50565b600081519050611c1a81611bf4565b92915050565b600060208284031215611c3657611c356114a8565b5b6000611c4484828501611c0b565b91505092915050565b7f455243373231436f415f457363726f773a200000000000000000000000000000600082015250565b6000611c83601283611a1d565b9150611c8e82611c4d565b601282019050919050565b7f20636f6e7472616374206d757374206265206170706f766520627920746f6b6560008201527f6e206f776e657200000000000000000000000000000000000000000000000000602082015250565b6000611cf5602783611a1d565b9150611d0082611c99565b602782019050919050565b6000611d1682611c76565b9150611d228284611aa9565b9150611d2d82611ce8565b915081905092915050565b6000604082019050611d4d6000830185611823565b611d5a60208301846118ac565b9392505050565b7f455243373231436f415f457363726f773a206974656d49642000000000000000600082015250565b6000611d97601983611a1d565b9150611da282611d61565b601982019050919050565b7f20646f6573206e6f742065786973740000000000000000000000000000000000600082015250565b6000611de3600f83611a1d565b9150611dee82611dad565b600f82019050919050565b6000611e0482611d8a565b9150611e108284611aa9565b9150611e1b82611dd6565b915081905092915050565b7f206973206e6f74206974656d206c697374657200000000000000000000000000600082015250565b6000611e5c601383611a1d565b9150611e6782611e26565b601382019050919050565b6000611e7d82611c76565b9150611e898284611aa9565b9150611e9482611e4f565b915081905092915050565b7f2068617320616c6c7265616479206265656e20636c61696d6564206f7220756e60008201527f6c69737465640000000000000000000000000000000000000000000000000000602082015250565b6000611efb602683611a1d565b9150611f0682611e9f565b602682019050919050565b6000611f1c82611d8a565b9150611f288284611aa9565b9150611f3382611eee565b915081905092915050565b7f206973206e6f74206974656d207065726d6974656420636c61696d6572000000600082015250565b6000611f74601d83611a1d565b9150611f7f82611f3e565b601d82019050919050565b6000611f9582611c76565b9150611fa18284611aa9565b9150611fac82611f67565b915081905092915050565b6000606082019050611fcc60008301866118ac565b611fd960208301856118ac565b611fe66040830184611823565b949350505050565b7f4f776e61626c653a206e6577206f776e657220697320746865207a65726f206160008201527f6464726573730000000000000000000000000000000000000000000000000000602082015250565b600061204a602683611b53565b915061205582611fee565b604082019050919050565b600060208201905081810360008301526120798161203d565b9050919050565b7f5265656e7472616e637947756172643a207265656e7472616e742063616c6c00600082015250565b60006120b6601f83611b53565b91506120c182612080565b602082019050919050565b600060208201905081810360008301526120e5816120a9565b9050919050565b7f4e487b7100000000000000000000000000000000000000000000000000000000600052601260045260246000fd5b7f4f776e61626c653a2063616c6c6572206973206e6f7420746865206f776e6572600082015250565b6000612151602083611b53565b915061215c8261211b565b602082019050919050565b6000602082019050818103600083015261218081612144565b9050919050565b7f4e487b7100000000000000000000000000000000000000000000000000000000600052601160045260246000fd5b60006121c182611510565b91506121cc83611510565b92508282026121da81611510565b915082820484148315176121f1576121f0612187565b5b5092915050565b600061220382611510565b915061220e83611510565b925082820190508082111561222657612225612187565b5b92915050565b7f4e487b7100000000000000000000000000000000000000000000000000000000600052603260045260246000fd5b600061226682611510565b91506000820361227957612278612187565b5b600182039050919050565b7f537472696e67733a20686578206c656e67746820696e73756666696369656e74600082015250565b60006122ba602083611b53565b91506122c582612284565b602082019050919050565b600060208201905081810360008301526122e9816122ad565b905091905056fea264697066735822122026ece97f1d95f98906f01169f3524d3a4159efb54719747fd29e64278d5b483064736f6c63430008130033",
  "linkReferences": {},
  "deployedLinkReferences": {}
}